{
  "contractName": "VestContract",
  "abi": [
    {
      "inputs": [
        {
          "internalType": "address",
          "name": "tokenAddress",
          "type": "address"
        }
      ],
      "stateMutability": "nonpayable",
      "type": "constructor"
    },
    {
      "anonymous": false,
      "inputs": [
        {
          "indexed": false,
          "internalType": "address",
          "name": "sender",
          "type": "address"
        },
        {
          "indexed": false,
          "internalType": "uint256",
          "name": "amount",
          "type": "uint256"
        }
      ],
      "name": "ClaimTokens",
      "type": "event"
    },
    {
      "anonymous": false,
      "inputs": [
        {
          "indexed": false,
          "internalType": "address",
          "name": "sender",
          "type": "address"
        },
        {
          "indexed": false,
          "internalType": "uint256",
          "name": "amount",
          "type": "uint256"
        }
      ],
      "name": "DepositTokens",
      "type": "event"
    },
    {
      "anonymous": false,
      "inputs": [
        {
          "indexed": true,
          "internalType": "address",
          "name": "previousOwner",
          "type": "address"
        },
        {
          "indexed": true,
          "internalType": "address",
          "name": "newOwner",
          "type": "address"
        }
      ],
      "name": "OwnershipTransferred",
      "type": "event"
    },
    {
      "anonymous": false,
      "inputs": [
        {
          "indexed": false,
          "internalType": "address",
          "name": "receiver",
          "type": "address"
        },
        {
          "indexed": false,
          "internalType": "uint256",
          "name": "amount",
          "type": "uint256"
        }
      ],
      "name": "VestTokens",
      "type": "event"
    },
    {
      "inputs": [],
      "name": "owner",
      "outputs": [
        {
          "internalType": "address",
          "name": "",
          "type": "address"
        }
      ],
      "stateMutability": "view",
      "type": "function",
      "constant": true
    },
    {
      "inputs": [],
      "name": "renounceOwnership",
      "outputs": [],
      "stateMutability": "nonpayable",
      "type": "function"
    },
    {
      "inputs": [
        {
          "internalType": "address",
          "name": "newOwner",
          "type": "address"
        }
      ],
      "name": "transferOwnership",
      "outputs": [],
      "stateMutability": "nonpayable",
      "type": "function"
    },
    {
      "inputs": [
        {
          "internalType": "address",
          "name": "receiver",
          "type": "address"
        },
        {
          "internalType": "uint256",
          "name": "amount",
          "type": "uint256"
        }
      ],
      "name": "vest",
      "outputs": [],
      "stateMutability": "nonpayable",
      "type": "function"
    },
    {
      "inputs": [],
      "name": "claim",
      "outputs": [],
      "stateMutability": "nonpayable",
      "type": "function"
    },
    {
      "inputs": [
        {
          "internalType": "uint256",
          "name": "amount",
          "type": "uint256"
        }
      ],
      "name": "deposit",
      "outputs": [],
      "stateMutability": "nonpayable",
      "type": "function"
    },
    {
      "inputs": [],
      "name": "getVestedAmount",
      "outputs": [
        {
          "internalType": "uint256",
          "name": "",
          "type": "uint256"
        }
      ],
      "stateMutability": "view",
      "type": "function",
      "constant": true
    }
  ],
  "bytecode": "0x608060405262278d006002553480156200001857600080fd5b506040516200170c3803806200170c83398181016040528101906200003e9190620001dc565b6200005e62000052620000a660201b60201c565b620000ae60201b60201c565b80600160006101000a81548173ffffffffffffffffffffffffffffffffffffffff021916908373ffffffffffffffffffffffffffffffffffffffff160217905550506200020e565b600033905090565b60008060009054906101000a900473ffffffffffffffffffffffffffffffffffffffff169050816000806101000a81548173ffffffffffffffffffffffffffffffffffffffff021916908373ffffffffffffffffffffffffffffffffffffffff1602179055508173ffffffffffffffffffffffffffffffffffffffff168173ffffffffffffffffffffffffffffffffffffffff167f8be0079c531659141344cd1fd0a4f28419497f9722a3daafe3b4186f6b6457e060405160405180910390a35050565b600080fd5b600073ffffffffffffffffffffffffffffffffffffffff82169050919050565b6000620001a48262000177565b9050919050565b620001b68162000197565b8114620001c257600080fd5b50565b600081519050620001d681620001ab565b92915050565b600060208284031215620001f557620001f462000172565b5b60006200020584828501620001c5565b91505092915050565b6114ee806200021e6000396000f3fe608060405234801561001057600080fd5b506004361061007d5760003560e01c80638da5cb5b1161005b5780638da5cb5b146100b25780639f2d9f2a146100d0578063b6b55f25146100ee578063f2fde38b1461010a5761007d565b80632797c6c8146100825780634e71d92d1461009e578063715018a6146100a8575b600080fd5b61009c60048036038101906100979190610e75565b610126565b005b6100a6610418565b005b6100b06108e4565b005b6100ba61096c565b6040516100c79190610ec4565b60405180910390f35b6100d8610995565b6040516100e59190610eee565b60405180910390f35b61010860048036038101906101039190610f09565b6109df565b005b610124600480360381019061011f9190610f36565b610c18565b005b61012e610d10565b73ffffffffffffffffffffffffffffffffffffffff1661014c61096c565b73ffffffffffffffffffffffffffffffffffffffff16146101a2576040517f08c379a000000000000000000000000000000000000000000000000000000000815260040161019990610fc0565b60405180910390fd5b6000600360008473ffffffffffffffffffffffffffffffffffffffff1673ffffffffffffffffffffffffffffffffffffffff1681526020019081526020016000206000015414610227576040517f08c379a000000000000000000000000000000000000000000000000000000000815260040161021e90611052565b60405180910390fd5b80600160009054906101000a900473ffffffffffffffffffffffffffffffffffffffff1673ffffffffffffffffffffffffffffffffffffffff166370a08231306040518263ffffffff1660e01b81526004016102839190610ec4565b602060405180830381865afa1580156102a0573d6000803e3d6000fd5b505050506040513d601f19601f820116820180604052508101906102c49190611087565b1015610305576040517f08c379a00000000000000000000000000000000000000000000000000000000081526004016102fc90611126565b60405180910390fd5b80600360008473ffffffffffffffffffffffffffffffffffffffff1673ffffffffffffffffffffffffffffffffffffffff168152602001908152602001600020600001819055506000600360008473ffffffffffffffffffffffffffffffffffffffff1673ffffffffffffffffffffffffffffffffffffffff1681526020019081526020016000206001018190555042600360008473ffffffffffffffffffffffffffffffffffffffff1673ffffffffffffffffffffffffffffffffffffffff168152602001908152602001600020600201819055507fae4f310cd182dea950769f616fded9ac478616a10edddea28787b02914b030b5828260405161040c929190611146565b60405180910390a15050565b6000600360003373ffffffffffffffffffffffffffffffffffffffff1673ffffffffffffffffffffffffffffffffffffffff168152602001908152602001600020600001541161049d576040517f08c379a0000000000000000000000000000000000000000000000000000000008152600401610494906111bb565b60405180910390fd5b6000600360003373ffffffffffffffffffffffffffffffffffffffff1673ffffffffffffffffffffffffffffffffffffffff1681526020019081526020016000206002015490506000429050600082826104f7919061120a565b90506000600254821061054e57600360003373ffffffffffffffffffffffffffffffffffffffff1673ffffffffffffffffffffffffffffffffffffffff1681526020019081526020016000206000015490506105ac565b60025482600360003373ffffffffffffffffffffffffffffffffffffffff1673ffffffffffffffffffffffffffffffffffffffff1681526020019081526020016000206000015461059f919061123e565b6105a991906112c7565b90505b6000600360003373ffffffffffffffffffffffffffffffffffffffff1673ffffffffffffffffffffffffffffffffffffffff16815260200190815260200160002060010154826105fc919061120a565b905081600360003373ffffffffffffffffffffffffffffffffffffffff1673ffffffffffffffffffffffffffffffffffffffff16815260200190815260200160002060010181905550600160009054906101000a900473ffffffffffffffffffffffffffffffffffffffff1673ffffffffffffffffffffffffffffffffffffffff1663095ea7b333836040518363ffffffff1660e01b81526004016106a2929190611146565b6020604051808303816000875af11580156106c1573d6000803e3d6000fd5b505050506040513d601f19601f820116820180604052508101906106e59190611330565b50600160009054906101000a900473ffffffffffffffffffffffffffffffffffffffff1673ffffffffffffffffffffffffffffffffffffffff1663a9059cbb33836040518363ffffffff1660e01b8152600401610743929190611146565b6020604051808303816000875af1158015610762573d6000803e3d6000fd5b505050506040513d601f19601f820116820180604052508101906107869190611330565b507f4d7f917f6b905f28ba5297e6c224a6cfec20ac6a3698a55b412d30b95ad25d2f33826040516107b8929190611146565b60405180910390a1600360003373ffffffffffffffffffffffffffffffffffffffff1673ffffffffffffffffffffffffffffffffffffffff16815260200190815260200160002060010154600360003373ffffffffffffffffffffffffffffffffffffffff1673ffffffffffffffffffffffffffffffffffffffff1681526020019081526020016000206000015414156108dd576000600360003373ffffffffffffffffffffffffffffffffffffffff1673ffffffffffffffffffffffffffffffffffffffff168152602001908152602001600020600001819055506000600360003373ffffffffffffffffffffffffffffffffffffffff1673ffffffffffffffffffffffffffffffffffffffff168152602001908152602001600020600101819055505b5050505050565b6108ec610d10565b73ffffffffffffffffffffffffffffffffffffffff1661090a61096c565b73ffffffffffffffffffffffffffffffffffffffff1614610960576040517f08c379a000000000000000000000000000000000000000000000000000000000815260040161095790610fc0565b60405180910390fd5b61096a6000610d18565b565b60008060009054906101000a900473ffffffffffffffffffffffffffffffffffffffff16905090565b6000600360003373ffffffffffffffffffffffffffffffffffffffff1673ffffffffffffffffffffffffffffffffffffffff16815260200190815260200160002060010154905090565b6109e7610d10565b73ffffffffffffffffffffffffffffffffffffffff16610a0561096c565b73ffffffffffffffffffffffffffffffffffffffff1614610a5b576040517f08c379a0000000000000000000000000000000000000000000000000000000008152600401610a5290610fc0565b60405180910390fd5b80600160009054906101000a900473ffffffffffffffffffffffffffffffffffffffff1673ffffffffffffffffffffffffffffffffffffffff166370a08231336040518263ffffffff1660e01b8152600401610ab79190610ec4565b602060405180830381865afa158015610ad4573d6000803e3d6000fd5b505050506040513d601f19601f82011682018060405250810190610af89190611087565b1015610b39576040517f08c379a0000000000000000000000000000000000000000000000000000000008152600401610b30906113cf565b60405180910390fd5b600160009054906101000a900473ffffffffffffffffffffffffffffffffffffffff1673ffffffffffffffffffffffffffffffffffffffff166323b872dd3330846040518463ffffffff1660e01b8152600401610b98939291906113ef565b6020604051808303816000875af1158015610bb7573d6000803e3d6000fd5b505050506040513d601f19601f82011682018060405250810190610bdb9190611330565b507fe3a6e26dceff30d982e183d0ce051fb5b791f2108785a9d440d417247cef5b413382604051610c0d929190611146565b60405180910390a150565b610c20610d10565b73ffffffffffffffffffffffffffffffffffffffff16610c3e61096c565b73ffffffffffffffffffffffffffffffffffffffff1614610c94576040517f08c379a0000000000000000000000000000000000000000000000000000000008152600401610c8b90610fc0565b60405180910390fd5b600073ffffffffffffffffffffffffffffffffffffffff168173ffffffffffffffffffffffffffffffffffffffff161415610d04576040517f08c379a0000000000000000000000000000000000000000000000000000000008152600401610cfb90611498565b60405180910390fd5b610d0d81610d18565b50565b600033905090565b60008060009054906101000a900473ffffffffffffffffffffffffffffffffffffffff169050816000806101000a81548173ffffffffffffffffffffffffffffffffffffffff021916908373ffffffffffffffffffffffffffffffffffffffff1602179055508173ffffffffffffffffffffffffffffffffffffffff168173ffffffffffffffffffffffffffffffffffffffff167f8be0079c531659141344cd1fd0a4f28419497f9722a3daafe3b4186f6b6457e060405160405180910390a35050565b600080fd5b600073ffffffffffffffffffffffffffffffffffffffff82169050919050565b6000610e0c82610de1565b9050919050565b610e1c81610e01565b8114610e2757600080fd5b50565b600081359050610e3981610e13565b92915050565b6000819050919050565b610e5281610e3f565b8114610e5d57600080fd5b50565b600081359050610e6f81610e49565b92915050565b60008060408385031215610e8c57610e8b610ddc565b5b6000610e9a85828601610e2a565b9250506020610eab85828601610e60565b9150509250929050565b610ebe81610e01565b82525050565b6000602082019050610ed96000830184610eb5565b92915050565b610ee881610e3f565b82525050565b6000602082019050610f036000830184610edf565b92915050565b600060208284031215610f1f57610f1e610ddc565b5b6000610f2d84828501610e60565b91505092915050565b600060208284031215610f4c57610f4b610ddc565b5b6000610f5a84828501610e2a565b91505092915050565b600082825260208201905092915050565b7f4f776e61626c653a2063616c6c6572206973206e6f7420746865206f776e6572600082015250565b6000610faa602083610f63565b9150610fb582610f74565b602082019050919050565b60006020820190508181036000830152610fd981610f9d565b9050919050565b7f697420697320666f7262696464656e20746f2076657374206d6f72652074686160008201527f6e206f6e63650000000000000000000000000000000000000000000000000000602082015250565b600061103c602683610f63565b915061104782610fe0565b604082019050919050565b6000602082019050818103600083015261106b8161102f565b9050919050565b60008151905061108181610e49565b92915050565b60006020828403121561109d5761109c610ddc565b5b60006110ab84828501611072565b91505092915050565b7f746865726520617265206e6f7420656e6f75676820746f6b656e7320696e207460008201527f6865206465706f73697400000000000000000000000000000000000000000000602082015250565b6000611110602a83610f63565b915061111b826110b4565b604082019050919050565b6000602082019050818103600083015261113f81611103565b9050919050565b600060408201905061115b6000830185610eb5565b6111686020830184610edf565b9392505050565b7f746865726520617265206e6f20746f6b656e7320746f20636c61696d00000000600082015250565b60006111a5601c83610f63565b91506111b08261116f565b602082019050919050565b600060208201905081810360008301526111d481611198565b9050919050565b7f4e487b7100000000000000000000000000000000000000000000000000000000600052601160045260246000fd5b600061121582610e3f565b915061122083610e3f565b925082821015611233576112326111db565b5b828203905092915050565b600061124982610e3f565b915061125483610e3f565b9250817fffffffffffffffffffffffffffffffffffffffffffffffffffffffffffffffff048311821515161561128d5761128c6111db565b5b828202905092915050565b7f4e487b7100000000000000000000000000000000000000000000000000000000600052601260045260246000fd5b60006112d282610e3f565b91506112dd83610e3f565b9250826112ed576112ec611298565b5b828204905092915050565b60008115159050919050565b61130d816112f8565b811461131857600080fd5b50565b60008151905061132a81611304565b92915050565b60006020828403121561134657611345610ddc565b5b60006113548482850161131b565b91505092915050565b7f746865726520617265206e6f7420656e6f75676820746f6b656e7320746f206d60008201527f616b652061206465706f73697400000000000000000000000000000000000000602082015250565b60006113b9602d83610f63565b91506113c48261135d565b604082019050919050565b600060208201905081810360008301526113e8816113ac565b9050919050565b60006060820190506114046000830186610eb5565b6114116020830185610eb5565b61141e6040830184610edf565b949350505050565b7f4f776e61626c653a206e6577206f776e657220697320746865207a65726f206160008201527f6464726573730000000000000000000000000000000000000000000000000000602082015250565b6000611482602683610f63565b915061148d82611426565b604082019050919050565b600060208201905081810360008301526114b181611475565b905091905056fea26469706673582212204b4311e47cc1fd60dfee436edad1359c560f4b5e18afa611aefa3fe6c4a6c19464736f6c634300080b0033",
  "immutableReferences": {},
  "source": "pragma solidity ^0.8.0;\r\n\r\nimport \"@openzeppelin/contracts/access/Ownable.sol\";\r\nimport \"@openzeppelin/contracts/token/ERC20/ERC20.sol\";\r\n\r\ncontract VestContract is Ownable {\r\n    struct data {\r\n        uint256 vestAmount;\r\n        uint256 vestedAmount;\r\n        uint256 startOfVesting;\r\n    }\r\n\r\n    ERC20 private token;\r\n    uint256 VESTING_TIME = 2592000; //30 days  60*60*24*30days == 2592000\r\n    mapping( address => data ) private users;\r\n\r\n    // Event that log deposit operation\r\n    event DepositTokens( address sender, uint256 amount );\r\n\r\n    // Event that log vest operation\r\n    event VestTokens( address receiver, uint256 amount );\r\n\r\n    // Event that log claim operation\r\n    event ClaimTokens( address sender, uint256 amount );\r\n\r\n    constructor( address tokenAddress ) {\r\n        token = ERC20(tokenAddress);\r\n    }\r\n\r\n    function vest( address receiver, uint256 amount ) public onlyOwner{\r\n        require(users[receiver].vestAmount == 0, \"it is forbidden to vest more than once\");\r\n        require(token.balanceOf(address(this)) >= amount, \"there are not enough tokens in the deposit\");\r\n        users[receiver].vestAmount = amount;\r\n        users[receiver].vestedAmount = 0;\r\n        users[receiver].startOfVesting = block.timestamp;\r\n        emit VestTokens(receiver, amount);\r\n    }\r\n\r\n    function claim () public {\r\n        require(users[msg.sender].vestAmount > 0, \"there are no tokens to claim\");\r\n        uint256 t1 = users[msg.sender].startOfVesting;\r\n        uint256 t2 = block.timestamp;\r\n        uint256 time = (t2 - t1);\r\n        uint256 vestedcoins = 0;\r\n        if (time >= VESTING_TIME){\r\n            vestedcoins = users[msg.sender].vestAmount;\r\n        } \r\n        else {\r\n            vestedcoins = (users[msg.sender].vestAmount * time / VESTING_TIME);\r\n        }\r\n        uint256 coinstotransfer = (vestedcoins - users[msg.sender].vestedAmount);\r\n        (users[msg.sender]).vestedAmount = vestedcoins;\r\n        token.approve(msg.sender, coinstotransfer);\r\n        ERC20(token).transfer(msg.sender, coinstotransfer);\r\n        emit ClaimTokens(msg.sender, coinstotransfer);\r\n        if (users[msg.sender].vestAmount == users[msg.sender].vestedAmount){\r\n            users[msg.sender].vestAmount = 0;\r\n            users[msg.sender].vestedAmount = 0;\r\n        }\r\n    }\r\n\r\n    function deposit ( uint256 amount ) public onlyOwner {\r\n        require(token.balanceOf(msg.sender) >= amount, \"there are not enough tokens to make a deposit\");\r\n        ERC20(token).transferFrom(msg.sender, address(this), amount);\r\n        emit DepositTokens(msg.sender, amount);\r\n    }\r\n\r\n    function getVestedAmount() public view returns( uint256 ) {\r\n        return (users[msg.sender]).vestedAmount;\r\n    }\r\n\r\n}",
  "sourcePath": "C:\\Users\\ww\\repo\\vesting\\contracts\\VestContract.sol",
  "compiler": {
    "name": "solc",
    "version": "0.8.11+commit.d7f03943.Emscripten.clang"
  },
  "schemaVersion": "3.4.4",
  "updatedAt": "2022-01-26T13:45:32.285Z",
  "networkType": "ethereum",
  "devdoc": {
    "kind": "dev",
    "methods": {
      "owner()": {
        "details": "Returns the address of the current owner."
      },
      "renounceOwnership()": {
        "details": "Leaves the contract without owner. It will not be possible to call `onlyOwner` functions anymore. Can only be called by the current owner. NOTE: Renouncing ownership will leave the contract without an owner, thereby removing any functionality that is only available to the owner."
      },
      "transferOwnership(address)": {
        "details": "Transfers ownership of the contract to a new account (`newOwner`). Can only be called by the current owner."
      }
    },
    "version": 1
  },
  "userdoc": {
    "kind": "user",
    "methods": {},
    "version": 1
  }
}