{
  "contractName": "WWToken",
  "abi": [
    {
      "inputs": [],
      "stateMutability": "nonpayable",
      "type": "constructor"
    },
    {
      "anonymous": false,
      "inputs": [
        {
          "indexed": true,
          "internalType": "address",
          "name": "owner",
          "type": "address"
        },
        {
          "indexed": true,
          "internalType": "address",
          "name": "spender",
          "type": "address"
        },
        {
          "indexed": false,
          "internalType": "uint256",
          "name": "value",
          "type": "uint256"
        }
      ],
      "name": "Approval",
      "type": "event"
    },
    {
      "anonymous": false,
      "inputs": [
        {
          "indexed": true,
          "internalType": "address",
          "name": "previousOwner",
          "type": "address"
        },
        {
          "indexed": true,
          "internalType": "address",
          "name": "newOwner",
          "type": "address"
        }
      ],
      "name": "OwnershipTransferred",
      "type": "event"
    },
    {
      "anonymous": false,
      "inputs": [
        {
          "indexed": true,
          "internalType": "address",
          "name": "from",
          "type": "address"
        },
        {
          "indexed": true,
          "internalType": "address",
          "name": "to",
          "type": "address"
        },
        {
          "indexed": false,
          "internalType": "uint256",
          "name": "value",
          "type": "uint256"
        }
      ],
      "name": "Transfer",
      "type": "event"
    },
    {
      "inputs": [
        {
          "internalType": "address",
          "name": "owner",
          "type": "address"
        },
        {
          "internalType": "address",
          "name": "spender",
          "type": "address"
        }
      ],
      "name": "allowance",
      "outputs": [
        {
          "internalType": "uint256",
          "name": "",
          "type": "uint256"
        }
      ],
      "stateMutability": "view",
      "type": "function",
      "constant": true
    },
    {
      "inputs": [
        {
          "internalType": "address",
          "name": "spender",
          "type": "address"
        },
        {
          "internalType": "uint256",
          "name": "amount",
          "type": "uint256"
        }
      ],
      "name": "approve",
      "outputs": [
        {
          "internalType": "bool",
          "name": "",
          "type": "bool"
        }
      ],
      "stateMutability": "nonpayable",
      "type": "function"
    },
    {
      "inputs": [
        {
          "internalType": "address",
          "name": "account",
          "type": "address"
        }
      ],
      "name": "balanceOf",
      "outputs": [
        {
          "internalType": "uint256",
          "name": "",
          "type": "uint256"
        }
      ],
      "stateMutability": "view",
      "type": "function",
      "constant": true
    },
    {
      "inputs": [],
      "name": "decimals",
      "outputs": [
        {
          "internalType": "uint8",
          "name": "",
          "type": "uint8"
        }
      ],
      "stateMutability": "view",
      "type": "function",
      "constant": true
    },
    {
      "inputs": [
        {
          "internalType": "address",
          "name": "spender",
          "type": "address"
        },
        {
          "internalType": "uint256",
          "name": "subtractedValue",
          "type": "uint256"
        }
      ],
      "name": "decreaseAllowance",
      "outputs": [
        {
          "internalType": "bool",
          "name": "",
          "type": "bool"
        }
      ],
      "stateMutability": "nonpayable",
      "type": "function"
    },
    {
      "inputs": [
        {
          "internalType": "address",
          "name": "spender",
          "type": "address"
        },
        {
          "internalType": "uint256",
          "name": "addedValue",
          "type": "uint256"
        }
      ],
      "name": "increaseAllowance",
      "outputs": [
        {
          "internalType": "bool",
          "name": "",
          "type": "bool"
        }
      ],
      "stateMutability": "nonpayable",
      "type": "function"
    },
    {
      "inputs": [],
      "name": "name",
      "outputs": [
        {
          "internalType": "string",
          "name": "",
          "type": "string"
        }
      ],
      "stateMutability": "view",
      "type": "function",
      "constant": true
    },
    {
      "inputs": [],
      "name": "owner",
      "outputs": [
        {
          "internalType": "address",
          "name": "",
          "type": "address"
        }
      ],
      "stateMutability": "view",
      "type": "function",
      "constant": true
    },
    {
      "inputs": [],
      "name": "renounceOwnership",
      "outputs": [],
      "stateMutability": "nonpayable",
      "type": "function"
    },
    {
      "inputs": [],
      "name": "symbol",
      "outputs": [
        {
          "internalType": "string",
          "name": "",
          "type": "string"
        }
      ],
      "stateMutability": "view",
      "type": "function",
      "constant": true
    },
    {
      "inputs": [],
      "name": "totalSupply",
      "outputs": [
        {
          "internalType": "uint256",
          "name": "",
          "type": "uint256"
        }
      ],
      "stateMutability": "view",
      "type": "function",
      "constant": true
    },
    {
      "inputs": [
        {
          "internalType": "address",
          "name": "recipient",
          "type": "address"
        },
        {
          "internalType": "uint256",
          "name": "amount",
          "type": "uint256"
        }
      ],
      "name": "transfer",
      "outputs": [
        {
          "internalType": "bool",
          "name": "",
          "type": "bool"
        }
      ],
      "stateMutability": "nonpayable",
      "type": "function"
    },
    {
      "inputs": [
        {
          "internalType": "address",
          "name": "sender",
          "type": "address"
        },
        {
          "internalType": "address",
          "name": "recipient",
          "type": "address"
        },
        {
          "internalType": "uint256",
          "name": "amount",
          "type": "uint256"
        }
      ],
      "name": "transferFrom",
      "outputs": [
        {
          "internalType": "bool",
          "name": "",
          "type": "bool"
        }
      ],
      "stateMutability": "nonpayable",
      "type": "function"
    },
    {
      "inputs": [
        {
          "internalType": "address",
          "name": "newOwner",
          "type": "address"
        }
      ],
      "name": "transferOwnership",
      "outputs": [],
      "stateMutability": "nonpayable",
      "type": "function"
    },
    {
      "inputs": [
        {
          "internalType": "address",
          "name": "account",
          "type": "address"
        },
        {
          "internalType": "uint256",
          "name": "amount",
          "type": "uint256"
        }
      ],
      "name": "mint",
      "outputs": [],
      "stateMutability": "nonpayable",
      "type": "function"
    },
    {
      "inputs": [
        {
          "internalType": "address",
          "name": "account",
          "type": "address"
        },
        {
          "internalType": "uint256",
          "name": "amount",
          "type": "uint256"
        }
      ],
      "name": "burn",
      "outputs": [],
      "stateMutability": "nonpayable",
      "type": "function"
    }
  ],
  "bytecode": "0x60806040523480156200001157600080fd5b506040518060400160405280601781526020017f576f6a63696563682057696368657220546f6b656e20410000000000000000008152506040518060400160405280600481526020017f575754410000000000000000000000000000000000000000000000000000000081525081600390805190602001906200009692919062000344565b508060049080519060200190620000af92919062000344565b505050620000d2620000c6620000f360201b60201c565b620000fb60201b60201c565b620000ed33683635c9adc5dea00000620001c160201b60201c565b620005a0565b600033905090565b6000600560009054906101000a900473ffffffffffffffffffffffffffffffffffffffff16905081600560006101000a81548173ffffffffffffffffffffffffffffffffffffffff021916908373ffffffffffffffffffffffffffffffffffffffff1602179055508173ffffffffffffffffffffffffffffffffffffffff168173ffffffffffffffffffffffffffffffffffffffff167f8be0079c531659141344cd1fd0a4f28419497f9722a3daafe3b4186f6b6457e060405160405180910390a35050565b600073ffffffffffffffffffffffffffffffffffffffff168273ffffffffffffffffffffffffffffffffffffffff16141562000234576040517f08c379a00000000000000000000000000000000000000000000000000000000081526004016200022b9062000455565b60405180910390fd5b62000248600083836200033a60201b60201c565b80600260008282546200025c9190620004b0565b92505081905550806000808473ffffffffffffffffffffffffffffffffffffffff1673ffffffffffffffffffffffffffffffffffffffff1681526020019081526020016000206000828254620002b39190620004b0565b925050819055508173ffffffffffffffffffffffffffffffffffffffff16600073ffffffffffffffffffffffffffffffffffffffff167fddf252ad1be2c89b69c2b068fc378daa952ba7f163c4a11628f55a4df523b3ef836040516200031a91906200051e565b60405180910390a362000336600083836200033f60201b60201c565b5050565b505050565b505050565b82805462000352906200056a565b90600052602060002090601f016020900481019282620003765760008555620003c2565b82601f106200039157805160ff1916838001178555620003c2565b82800160010185558215620003c2579182015b82811115620003c1578251825591602001919060010190620003a4565b5b509050620003d19190620003d5565b5090565b5b80821115620003f0576000816000905550600101620003d6565b5090565b600082825260208201905092915050565b7f45524332303a206d696e7420746f20746865207a65726f206164647265737300600082015250565b60006200043d601f83620003f4565b91506200044a8262000405565b602082019050919050565b6000602082019050818103600083015262000470816200042e565b9050919050565b6000819050919050565b7f4e487b7100000000000000000000000000000000000000000000000000000000600052601160045260246000fd5b6000620004bd8262000477565b9150620004ca8362000477565b9250827fffffffffffffffffffffffffffffffffffffffffffffffffffffffffffffffff0382111562000502576200050162000481565b5b828201905092915050565b620005188162000477565b82525050565b60006020820190506200053560008301846200050d565b92915050565b7f4e487b7100000000000000000000000000000000000000000000000000000000600052602260045260246000fd5b600060028204905060018216806200058357607f821691505b602082108114156200059a57620005996200053b565b5b50919050565b611e2480620005b06000396000f3fe608060405234801561001057600080fd5b50600436106101005760003560e01c8063715018a611610097578063a457c2d711610066578063a457c2d71461029d578063a9059cbb146102cd578063dd62ed3e146102fd578063f2fde38b1461032d57610100565b8063715018a61461023b5780638da5cb5b1461024557806395d89b41146102635780639dc29fac1461028157610100565b8063313ce567116100d3578063313ce567146101a157806339509351146101bf57806340c10f19146101ef57806370a082311461020b57610100565b806306fdde0314610105578063095ea7b31461012357806318160ddd1461015357806323b872dd14610171575b600080fd5b61010d610349565b60405161011a91906113cc565b60405180910390f35b61013d60048036038101906101389190611487565b6103db565b60405161014a91906114e2565b60405180910390f35b61015b6103f9565b604051610168919061150c565b60405180910390f35b61018b60048036038101906101869190611527565b610403565b60405161019891906114e2565b60405180910390f35b6101a96104fb565b6040516101b69190611596565b60405180910390f35b6101d960048036038101906101d49190611487565b610504565b6040516101e691906114e2565b60405180910390f35b61020960048036038101906102049190611487565b6105b0565b005b610225600480360381019061022091906115b1565b61063a565b604051610232919061150c565b60405180910390f35b610243610682565b005b61024d61070a565b60405161025a91906115ed565b60405180910390f35b61026b610734565b60405161027891906113cc565b60405180910390f35b61029b60048036038101906102969190611487565b6107c6565b005b6102b760048036038101906102b29190611487565b610850565b6040516102c491906114e2565b60405180910390f35b6102e760048036038101906102e29190611487565b61093b565b6040516102f491906114e2565b60405180910390f35b61031760048036038101906103129190611608565b610959565b604051610324919061150c565b60405180910390f35b610347600480360381019061034291906115b1565b6109e0565b005b60606003805461035890611677565b80601f016020809104026020016040519081016040528092919081815260200182805461038490611677565b80156103d15780601f106103a6576101008083540402835291602001916103d1565b820191906000526020600020905b8154815290600101906020018083116103b457829003601f168201915b5050505050905090565b60006103ef6103e8610ad8565b8484610ae0565b6001905092915050565b6000600254905090565b6000610410848484610cab565b6000600160008673ffffffffffffffffffffffffffffffffffffffff1673ffffffffffffffffffffffffffffffffffffffff168152602001908152602001600020600061045b610ad8565b73ffffffffffffffffffffffffffffffffffffffff1673ffffffffffffffffffffffffffffffffffffffff168152602001908152602001600020549050828110156104db576040517f08c379a00000000000000000000000000000000000000000000000000000000081526004016104d29061171b565b60405180910390fd5b6104ef856104e7610ad8565b858403610ae0565b60019150509392505050565b60006012905090565b60006105a6610511610ad8565b84846001600061051f610ad8565b73ffffffffffffffffffffffffffffffffffffffff1673ffffffffffffffffffffffffffffffffffffffff16815260200190815260200160002060008873ffffffffffffffffffffffffffffffffffffffff1673ffffffffffffffffffffffffffffffffffffffff168152602001908152602001600020546105a1919061176a565b610ae0565b6001905092915050565b6105b8610ad8565b73ffffffffffffffffffffffffffffffffffffffff166105d661070a565b73ffffffffffffffffffffffffffffffffffffffff161461062c576040517f08c379a00000000000000000000000000000000000000000000000000000000081526004016106239061180c565b60405180910390fd5b6106368282610f2c565b5050565b60008060008373ffffffffffffffffffffffffffffffffffffffff1673ffffffffffffffffffffffffffffffffffffffff168152602001908152602001600020549050919050565b61068a610ad8565b73ffffffffffffffffffffffffffffffffffffffff166106a861070a565b73ffffffffffffffffffffffffffffffffffffffff16146106fe576040517f08c379a00000000000000000000000000000000000000000000000000000000081526004016106f59061180c565b60405180910390fd5b610708600061108c565b565b6000600560009054906101000a900473ffffffffffffffffffffffffffffffffffffffff16905090565b60606004805461074390611677565b80601f016020809104026020016040519081016040528092919081815260200182805461076f90611677565b80156107bc5780601f10610791576101008083540402835291602001916107bc565b820191906000526020600020905b81548152906001019060200180831161079f57829003601f168201915b5050505050905090565b6107ce610ad8565b73ffffffffffffffffffffffffffffffffffffffff166107ec61070a565b73ffffffffffffffffffffffffffffffffffffffff1614610842576040517f08c379a00000000000000000000000000000000000000000000000000000000081526004016108399061180c565b60405180910390fd5b61084c8282611152565b5050565b6000806001600061085f610ad8565b73ffffffffffffffffffffffffffffffffffffffff1673ffffffffffffffffffffffffffffffffffffffff16815260200190815260200160002060008573ffffffffffffffffffffffffffffffffffffffff1673ffffffffffffffffffffffffffffffffffffffff1681526020019081526020016000205490508281101561091c576040517f08c379a00000000000000000000000000000000000000000000000000000000081526004016109139061189e565b60405180910390fd5b610930610927610ad8565b85858403610ae0565b600191505092915050565b600061094f610948610ad8565b8484610cab565b6001905092915050565b6000600160008473ffffffffffffffffffffffffffffffffffffffff1673ffffffffffffffffffffffffffffffffffffffff16815260200190815260200160002060008373ffffffffffffffffffffffffffffffffffffffff1673ffffffffffffffffffffffffffffffffffffffff16815260200190815260200160002054905092915050565b6109e8610ad8565b73ffffffffffffffffffffffffffffffffffffffff16610a0661070a565b73ffffffffffffffffffffffffffffffffffffffff1614610a5c576040517f08c379a0000000000000000000000000000000000000000000000000000000008152600401610a539061180c565b60405180910390fd5b600073ffffffffffffffffffffffffffffffffffffffff168173ffffffffffffffffffffffffffffffffffffffff161415610acc576040517f08c379a0000000000000000000000000000000000000000000000000000000008152600401610ac390611930565b60405180910390fd5b610ad58161108c565b50565b600033905090565b600073ffffffffffffffffffffffffffffffffffffffff168373ffffffffffffffffffffffffffffffffffffffff161415610b50576040517f08c379a0000000000000000000000000000000000000000000000000000000008152600401610b47906119c2565b60405180910390fd5b600073ffffffffffffffffffffffffffffffffffffffff168273ffffffffffffffffffffffffffffffffffffffff161415610bc0576040517f08c379a0000000000000000000000000000000000000000000000000000000008152600401610bb790611a54565b60405180910390fd5b80600160008573ffffffffffffffffffffffffffffffffffffffff1673ffffffffffffffffffffffffffffffffffffffff16815260200190815260200160002060008473ffffffffffffffffffffffffffffffffffffffff1673ffffffffffffffffffffffffffffffffffffffff168152602001908152602001600020819055508173ffffffffffffffffffffffffffffffffffffffff168373ffffffffffffffffffffffffffffffffffffffff167f8c5be1e5ebec7d5bd14f71427d1e84f3dd0314c0f7b2291e5b200ac8c7c3b92583604051610c9e919061150c565b60405180910390a3505050565b600073ffffffffffffffffffffffffffffffffffffffff168373ffffffffffffffffffffffffffffffffffffffff161415610d1b576040517f08c379a0000000000000000000000000000000000000000000000000000000008152600401610d1290611ae6565b60405180910390fd5b600073ffffffffffffffffffffffffffffffffffffffff168273ffffffffffffffffffffffffffffffffffffffff161415610d8b576040517f08c379a0000000000000000000000000000000000000000000000000000000008152600401610d8290611b78565b60405180910390fd5b610d96838383611329565b60008060008573ffffffffffffffffffffffffffffffffffffffff1673ffffffffffffffffffffffffffffffffffffffff16815260200190815260200160002054905081811015610e1c576040517f08c379a0000000000000000000000000000000000000000000000000000000008152600401610e1390611c0a565b60405180910390fd5b8181036000808673ffffffffffffffffffffffffffffffffffffffff1673ffffffffffffffffffffffffffffffffffffffff16815260200190815260200160002081905550816000808573ffffffffffffffffffffffffffffffffffffffff1673ffffffffffffffffffffffffffffffffffffffff1681526020019081526020016000206000828254610eaf919061176a565b925050819055508273ffffffffffffffffffffffffffffffffffffffff168473ffffffffffffffffffffffffffffffffffffffff167fddf252ad1be2c89b69c2b068fc378daa952ba7f163c4a11628f55a4df523b3ef84604051610f13919061150c565b60405180910390a3610f2684848461132e565b50505050565b600073ffffffffffffffffffffffffffffffffffffffff168273ffffffffffffffffffffffffffffffffffffffff161415610f9c576040517f08c379a0000000000000000000000000000000000000000000000000000000008152600401610f9390611c76565b60405180910390fd5b610fa860008383611329565b8060026000828254610fba919061176a565b92505081905550806000808473ffffffffffffffffffffffffffffffffffffffff1673ffffffffffffffffffffffffffffffffffffffff168152602001908152602001600020600082825461100f919061176a565b925050819055508173ffffffffffffffffffffffffffffffffffffffff16600073ffffffffffffffffffffffffffffffffffffffff167fddf252ad1be2c89b69c2b068fc378daa952ba7f163c4a11628f55a4df523b3ef83604051611074919061150c565b60405180910390a36110886000838361132e565b5050565b6000600560009054906101000a900473ffffffffffffffffffffffffffffffffffffffff16905081600560006101000a81548173ffffffffffffffffffffffffffffffffffffffff021916908373ffffffffffffffffffffffffffffffffffffffff1602179055508173ffffffffffffffffffffffffffffffffffffffff168173ffffffffffffffffffffffffffffffffffffffff167f8be0079c531659141344cd1fd0a4f28419497f9722a3daafe3b4186f6b6457e060405160405180910390a35050565b600073ffffffffffffffffffffffffffffffffffffffff168273ffffffffffffffffffffffffffffffffffffffff1614156111c2576040517f08c379a00000000000000000000000000000000000000000000000000000000081526004016111b990611d08565b60405180910390fd5b6111ce82600083611329565b60008060008473ffffffffffffffffffffffffffffffffffffffff1673ffffffffffffffffffffffffffffffffffffffff16815260200190815260200160002054905081811015611254576040517f08c379a000000000000000000000000000000000000000000000000000000000815260040161124b90611d9a565b60405180910390fd5b8181036000808573ffffffffffffffffffffffffffffffffffffffff1673ffffffffffffffffffffffffffffffffffffffff1681526020019081526020016000208190555081600260008282546112ab9190611dba565b92505081905550600073ffffffffffffffffffffffffffffffffffffffff168373ffffffffffffffffffffffffffffffffffffffff167fddf252ad1be2c89b69c2b068fc378daa952ba7f163c4a11628f55a4df523b3ef84604051611310919061150c565b60405180910390a36113248360008461132e565b505050565b505050565b505050565b600081519050919050565b600082825260208201905092915050565b60005b8381101561136d578082015181840152602081019050611352565b8381111561137c576000848401525b50505050565b6000601f19601f8301169050919050565b600061139e82611333565b6113a8818561133e565b93506113b881856020860161134f565b6113c181611382565b840191505092915050565b600060208201905081810360008301526113e68184611393565b905092915050565b600080fd5b600073ffffffffffffffffffffffffffffffffffffffff82169050919050565b600061141e826113f3565b9050919050565b61142e81611413565b811461143957600080fd5b50565b60008135905061144b81611425565b92915050565b6000819050919050565b61146481611451565b811461146f57600080fd5b50565b6000813590506114818161145b565b92915050565b6000806040838503121561149e5761149d6113ee565b5b60006114ac8582860161143c565b92505060206114bd85828601611472565b9150509250929050565b60008115159050919050565b6114dc816114c7565b82525050565b60006020820190506114f760008301846114d3565b92915050565b61150681611451565b82525050565b600060208201905061152160008301846114fd565b92915050565b6000806000606084860312156115405761153f6113ee565b5b600061154e8682870161143c565b935050602061155f8682870161143c565b925050604061157086828701611472565b9150509250925092565b600060ff82169050919050565b6115908161157a565b82525050565b60006020820190506115ab6000830184611587565b92915050565b6000602082840312156115c7576115c66113ee565b5b60006115d58482850161143c565b91505092915050565b6115e781611413565b82525050565b600060208201905061160260008301846115de565b92915050565b6000806040838503121561161f5761161e6113ee565b5b600061162d8582860161143c565b925050602061163e8582860161143c565b9150509250929050565b7f4e487b7100000000000000000000000000000000000000000000000000000000600052602260045260246000fd5b6000600282049050600182168061168f57607f821691505b602082108114156116a3576116a2611648565b5b50919050565b7f45524332303a207472616e7366657220616d6f756e742065786365656473206160008201527f6c6c6f77616e6365000000000000000000000000000000000000000000000000602082015250565b600061170560288361133e565b9150611710826116a9565b604082019050919050565b60006020820190508181036000830152611734816116f8565b9050919050565b7f4e487b7100000000000000000000000000000000000000000000000000000000600052601160045260246000fd5b600061177582611451565b915061178083611451565b9250827fffffffffffffffffffffffffffffffffffffffffffffffffffffffffffffffff038211156117b5576117b461173b565b5b828201905092915050565b7f4f776e61626c653a2063616c6c6572206973206e6f7420746865206f776e6572600082015250565b60006117f660208361133e565b9150611801826117c0565b602082019050919050565b60006020820190508181036000830152611825816117e9565b9050919050565b7f45524332303a2064656372656173656420616c6c6f77616e63652062656c6f7760008201527f207a65726f000000000000000000000000000000000000000000000000000000602082015250565b600061188860258361133e565b91506118938261182c565b604082019050919050565b600060208201905081810360008301526118b78161187b565b9050919050565b7f4f776e61626c653a206e6577206f776e657220697320746865207a65726f206160008201527f6464726573730000000000000000000000000000000000000000000000000000602082015250565b600061191a60268361133e565b9150611925826118be565b604082019050919050565b600060208201905081810360008301526119498161190d565b9050919050565b7f45524332303a20617070726f76652066726f6d20746865207a65726f2061646460008201527f7265737300000000000000000000000000000000000000000000000000000000602082015250565b60006119ac60248361133e565b91506119b782611950565b604082019050919050565b600060208201905081810360008301526119db8161199f565b9050919050565b7f45524332303a20617070726f766520746f20746865207a65726f20616464726560008201527f7373000000000000000000000000000000000000000000000000000000000000602082015250565b6000611a3e60228361133e565b9150611a49826119e2565b604082019050919050565b60006020820190508181036000830152611a6d81611a31565b9050919050565b7f45524332303a207472616e736665722066726f6d20746865207a65726f20616460008201527f6472657373000000000000000000000000000000000000000000000000000000602082015250565b6000611ad060258361133e565b9150611adb82611a74565b604082019050919050565b60006020820190508181036000830152611aff81611ac3565b9050919050565b7f45524332303a207472616e7366657220746f20746865207a65726f206164647260008201527f6573730000000000000000000000000000000000000000000000000000000000602082015250565b6000611b6260238361133e565b9150611b6d82611b06565b604082019050919050565b60006020820190508181036000830152611b9181611b55565b9050919050565b7f45524332303a207472616e7366657220616d6f756e742065786365656473206260008201527f616c616e63650000000000000000000000000000000000000000000000000000602082015250565b6000611bf460268361133e565b9150611bff82611b98565b604082019050919050565b60006020820190508181036000830152611c2381611be7565b9050919050565b7f45524332303a206d696e7420746f20746865207a65726f206164647265737300600082015250565b6000611c60601f8361133e565b9150611c6b82611c2a565b602082019050919050565b60006020820190508181036000830152611c8f81611c53565b9050919050565b7f45524332303a206275726e2066726f6d20746865207a65726f2061646472657360008201527f7300000000000000000000000000000000000000000000000000000000000000602082015250565b6000611cf260218361133e565b9150611cfd82611c96565b604082019050919050565b60006020820190508181036000830152611d2181611ce5565b9050919050565b7f45524332303a206275726e20616d6f756e7420657863656564732062616c616e60008201527f6365000000000000000000000000000000000000000000000000000000000000602082015250565b6000611d8460228361133e565b9150611d8f82611d28565b604082019050919050565b60006020820190508181036000830152611db381611d77565b9050919050565b6000611dc582611451565b9150611dd083611451565b925082821015611de357611de261173b565b5b82820390509291505056fea26469706673582212200ff35bcf74df21b2b7af203d9afdb2d166a8f56276ca37e3d9d860149b96e5dc64736f6c634300080b0033",
  "immutableReferences": {},
  "source": "pragma solidity ^0.8.0;\r\n\r\nimport \"@openzeppelin/contracts/access/Ownable.sol\";\r\nimport \"@openzeppelin/contracts/token/ERC20/ERC20.sol\";\r\n \r\ncontract WWToken is ERC20, Ownable {\r\n    constructor() ERC20(\"Wojciech Wicher Token A\", \"WWTA\") {\r\n        _mint(msg.sender, 1000 * 10 ** 18);\r\n    }\r\n\r\n    function mint(address account, uint256 amount) public onlyOwner {\r\n        _mint(account, amount);\r\n    }\r\n\r\n    function burn(address account, uint256 amount) public onlyOwner {\r\n        _burn(account, amount);\r\n    }\r\n}",
  "sourcePath": "C:\\Users\\ww\\repo\\vesting\\contracts\\WWToken.sol",
  "compiler": {
    "name": "solc",
    "version": "0.8.11+commit.d7f03943.Emscripten.clang"
  },
  "schemaVersion": "3.4.4",
  "updatedAt": "2022-01-26T13:45:32.270Z",
  "networkType": "ethereum",
  "devdoc": {
    "kind": "dev",
    "methods": {
      "allowance(address,address)": {
        "details": "See {IERC20-allowance}."
      },
      "approve(address,uint256)": {
        "details": "See {IERC20-approve}. Requirements: - `spender` cannot be the zero address."
      },
      "balanceOf(address)": {
        "details": "See {IERC20-balanceOf}."
      },
      "decimals()": {
        "details": "Returns the number of decimals used to get its user representation. For example, if `decimals` equals `2`, a balance of `505` tokens should be displayed to a user as `5.05` (`505 / 10 ** 2`). Tokens usually opt for a value of 18, imitating the relationship between Ether and Wei. This is the value {ERC20} uses, unless this function is overridden; NOTE: This information is only used for _display_ purposes: it in no way affects any of the arithmetic of the contract, including {IERC20-balanceOf} and {IERC20-transfer}."
      },
      "decreaseAllowance(address,uint256)": {
        "details": "Atomically decreases the allowance granted to `spender` by the caller. This is an alternative to {approve} that can be used as a mitigation for problems described in {IERC20-approve}. Emits an {Approval} event indicating the updated allowance. Requirements: - `spender` cannot be the zero address. - `spender` must have allowance for the caller of at least `subtractedValue`."
      },
      "increaseAllowance(address,uint256)": {
        "details": "Atomically increases the allowance granted to `spender` by the caller. This is an alternative to {approve} that can be used as a mitigation for problems described in {IERC20-approve}. Emits an {Approval} event indicating the updated allowance. Requirements: - `spender` cannot be the zero address."
      },
      "name()": {
        "details": "Returns the name of the token."
      },
      "owner()": {
        "details": "Returns the address of the current owner."
      },
      "renounceOwnership()": {
        "details": "Leaves the contract without owner. It will not be possible to call `onlyOwner` functions anymore. Can only be called by the current owner. NOTE: Renouncing ownership will leave the contract without an owner, thereby removing any functionality that is only available to the owner."
      },
      "symbol()": {
        "details": "Returns the symbol of the token, usually a shorter version of the name."
      },
      "totalSupply()": {
        "details": "See {IERC20-totalSupply}."
      },
      "transfer(address,uint256)": {
        "details": "See {IERC20-transfer}. Requirements: - `recipient` cannot be the zero address. - the caller must have a balance of at least `amount`."
      },
      "transferFrom(address,address,uint256)": {
        "details": "See {IERC20-transferFrom}. Emits an {Approval} event indicating the updated allowance. This is not required by the EIP. See the note at the beginning of {ERC20}. Requirements: - `sender` and `recipient` cannot be the zero address. - `sender` must have a balance of at least `amount`. - the caller must have allowance for ``sender``'s tokens of at least `amount`."
      },
      "transferOwnership(address)": {
        "details": "Transfers ownership of the contract to a new account (`newOwner`). Can only be called by the current owner."
      }
    },
    "version": 1
  },
  "userdoc": {
    "kind": "user",
    "methods": {},
    "version": 1
  }
}